:1000000000180020C1000000993600005D36000095
:100010005D3600005D3600005D3600005D36000094
:100020005D3600005D3600005D3600009936000048
:10003000993600005D3600001D320000ED320000F0
:100040009936000099360000993600009936000074
:100050009936000099360000993600009936000064
:10006000E91E00009936000099360000993600001C
:10007000B54500008D460000654700009936000038
:100080009936000099360000993600009936000034
:100090009936000099360000993600009936000024
:1000A000C53A0000993600009936000099360000E4
:1000B0009936000099360000993600009936000004
:1000C000F8B503F0EDFA0821474A484B1A60484A50
:1000D000484B1A60484A494B1A60494B1A780A4201
:1000E00002D01A780A431A702A22464B46481A70E0
:1000F00000234649464C1A188A4203D2E558043375
:100100001560F8E70021434B434A934201D202C3F2
:10011000FBE70023414A424958589446985004331B
:10012000C02BF9D100210326FF2580248A083D4BEE
:100130009200D2180B002F003340DB009F40106864
:100140000131B84307002000984003003B4313608F
:100150002029EBD16246344B1A608A22334B1A7045
:10016000334B663A5A707C321A709E3A9979114232
:10017000FCD0102299791142FCD10C209A792C499B
:100180000240082AFAD1053A0A713D324A71203AF2
:1001900099791142FCD0402299791142FCD025492D
:1001A000254A11602021224A117014399A790A4097
:1001B0000C2AFBD1214A224B1A60224A224B1A6098
:1001C0000022224B1A60224B07321A60214A224B2E
:1001D0001A6062B603F04AFB05F032F903F066FAE2
:1001E00003F034FAFEE7C046300004F034800440E7
:1001F000823F0000388004400100000F3C80044032
:1002000002D0074000E0074020FDFF1F38FFFF1F1E
:10021000B069000038FFFF1F5404002000F9FF1FE1
:100220000000000000E400E008ED00E0005006409F
:10023000004006400000011044800440C000050555
:10024000048004407FBB000014E000E018E000E000
:1002500010E000E00000202020ED00E0FFFFFFFFA5
:10026000FFFFFFFFFFFFFFFFFFFFFFFFFFFFFFFF9E
:10027000FFFFFFFFFFFFFFFFFFFFFFFFFFFFFFFF8E
:10028000FFFFFFFFFFFFFFFFFFFFFFFFFFFFFFFF7E
:10029000FFFFFFFFFFFFFFFFFFFFFFFFFFFFFFFF6E
:1002A000FFFFFFFFFFFFFFFFFFFFFFFFFFFFFFFF5E
:1002B000FFFFFFFFFFFFFFFFFFFFFFFFFFFFFFFF4E
:1002C000FFFFFFFFFFFFFFFFFFFFFFFFFFFFFFFF3E
:1002D000FFFFFFFFFFFFFFFFFFFFFFFFFFFFFFFF2E
:1002E000FFFFFFFFFFFFFFFFFFFFFFFFFFFFFFFF1E
:1002F000FFFFFFFFFFFFFFFFFFFFFFFFFFFFFFFF0E
:10030000FFFFFFFFFFFFFFFFFFFFFFFFFFFFFFFFFD
:10031000FFFFFFFFFFFFFFFFFFFFFFFFFFFFFFFFED
:10032000FFFFFFFFFFFFFFFFFFFFFFFFFFFFFFFFDD
:10033000FFFFFFFFFFFFFFFFFFFFFFFFFFFFFFFFCD
:10034000FFFFFFFFFFFFFFFFFFFFFFFFFFFFFFFFBD
:10035000FFFFFFFFFFFFFFFFFFFFFFFFFFFFFFFFAD
:10036000FFFFFFFFFFFFFFFFFFFFFFFFFFFFFFFF9D
:10037000FFFFFFFFFFFFFFFFFFFFFFFFFFFFFFFF8D
:10038000FFFFFFFFFFFFFFFFFFFFFFFFFFFFFFFF7D
:10039000FFFFFFFFFFFFFFFFFFFFFFFFFFFFFFFF6D
:1003A000FFFFFFFFFFFFFFFFFFFFFFFFFFFFFFFF5D
:1003B000FFFFFFFFFFFFFFFFFFFFFFFFFFFFFFFF4D
:1003C000FFFFFFFFFFFFFFFFFFFFFFFFFFFFFFFF3D
:1003D000FFFFFFFFFFFFFFFFFFFFFFFFFFFFFFFF2D
:1003E000FFFFFFFFFFFFFFFFFFFFFFFFFFFFFFFF1D
:1003F000FFFFFFFFFFFFFFFFFFFFFFFFFFFFFFFF0D
:10040000FFFFFFFFFFFFFFFFFFFFFFFFDEF9FFFF23
:1004100010B5064C2378002B07D1054B002B02D0DA
:10042000044800E000BF0123237010BD38FFFF1F08
:1004300000000000B0690000084B10B5002B03D08D
:100440000749084800E000BF07480368002B00D1B7
:1004500010BD064B002BFBD09847F9E700000000C9
:100460003CFFFF1FB069000038FFFF1F00000000C5
:10047000014B18887047C04654FFFF1F10B5182065
:1004800003F09CF804F082FF034904F0C3FC04F07D
:10049000F9FB024B188010BDCDCCD44054FFFF1F98
:1004A00010B5FFF7EBFF10BD10B500211A2003F0C7
:1004B00069F910BD13B50D4B012801D100221A6056
:1004C0000B4A0C481268019201990B4A11600B4AC1
:1004D0001268520004D41A6804688A18121B00E0DB
:1004E00000221A600160186816BDC04660FFFF1F39
:1004F000C001002058FFFF1F5CFFFF1F100100F824
:1005000070B5040008000D0005F0B6F8236802007D
:1005100029005B682000984770BD70B50500FFF7A3
:10052000EFFF0400280002F0FFFE001970BDFFFF7E
:1005300010B500F0F2FB00F08EFBFFF7B1FF00F00A
:100540004FFC01F04FF9094C200002F0EDFE084984
:100550002000FFF7E2FF01F0D3F8FFF7A5FF00F05E
:10056000FBF80022034B1A7010BDC04620FEFF1F8F
:10057000EC56000071FFFF1F10B50121032000F0B1
:10058000EFF80021032000F0EBF810BD70B503F088
:1005900091FE00281ADD03F045FE0400C6B23000CB
:1005A00003F022FF0A4DE4B2280002F0BDFE632CE6
:1005B00002D1FFF7E1FF09E006492800FFF7A0FF9D
:1005C000300003F011FF280002F0AEFE70BDC046FF
:1005D00020FEFF1F0A57000037B500F0A5FBFFF70C
:1005E000D5FF0020FFF766FF4E4D4F4C2A782B00B9
:1005F000002A17D0092815D90120FFF75BFF002139
:100600004A4A297013780133DBB2032B01D81370E7
:1006100000E0117023780133DBB2052B00D10023F9
:10062000237003E0002801D101221A7020780428E9
:1006300073D804F045F90306262B550000F024F981
:1006400021E000F0A5F83A4C0021207800F088F86D
:100650002578280000F0B6F80100280000F05CF9C9
:1006600000F008FC962003F0E7F82078002100F065
:10067000FFFB02200121207000F0FAFB00F026FCB5
:100680004FE000F0D9F800F0F5FBF7E7294B2A4AD4
:100690001B682A490093009B13600A689A1A312A42
:1006A0003FD90B6000F0FAFB254D264C012229783A
:1006B000207800F003FC00F009FC2A7823000132C6
:1006C000D2B2082A01D02A7004E000222A702278CF
:1006D000013222701A78082A23D100221A7020E0F1
:1006E000144B194A1B6810680193134B01991B683E
:1006F0001B1A092B15D9116000F020FC134C0121A5
:10070000207800F025FC00F029FC23780133DBB2CF
:100710003F2B00D90023237003E00D490D48FFF75C
:10072000FCFE37BD24FDFF1F71FFFF1F25FDFF1FCE
:1007300074FFFF1FC001002068FFFF1F6CFFFF1F39
:1007400072FFFF1F73FFFF1F64FFFF1F70FFFF1F7C
:100750002557000020FEFF1F10B500F0D5F910BD91
:1007600070B504000D0000F0CFF900F04BFA200046
:10077000002D02D000F0CEF901E000F007FA50237E
:10078000013BFDD100F042FA00F0BEF970BDFFFF61
:1007900010B50024200001340021E4B2FFF7E0FF8F
:1007A000402CF7D100231800054900220133CC1852
:1007B000A0540832402AFBD1072BF6D110BDC04609
:1007C00026FDFF1F70B5060000F041FA00F09CF90D
:1007D000300000F09FF9012000F02EFA052400F00F
:1007E00011FA013C0020E4B200F014FA002CF8D118
:1007F00000F00CFA00F088F9022000F01DFA012345
:100800000C4D20002B7000F005FA00280CD03000B1
:1008100000F0BCF900F0F6F93023013BFDD100F007
:10082000F5F900F071F92C70012000F0F3F9287847
:1008300070BDC04676FFFF1FF0B5002600240025DE
:1008400085B00027F3B20393039BD819C0B2FFF71A
:10085000B9FF01220B4B42409B19DA55002300904F
:100860000193009A019BA4185D41083724196D413A
:10087000402FE9D10136082EE3D12000290005B030
:10088000F0BDC04626FDFF1FF7B51D4B1D4A1B6876
:10089000019301991368CB1A632B30D9002311609F
:1008A00019491C0008004034CA180C1955781570F5
:1008B0000832A242FAD10133072BF2D1134B144A6A
:1008C0001978082904D100211970117801311170AB
:1008D00011780F2902D100211170197012781C783B
:1008E0000C49920112198A180021555C46186F1E96
:1008F000BD410831F5714029F7D101341C70F7BDB5
:10090000C001002078FFFF1F26FDFF1F7CFFFF1F97
:1009100075FFFF1F3B570000002270B516000F4BFC
:1009200000249D182E550834402CFAD10132082A93
:10093000F6D107280BD90F2809D9172807D91F285E
:1009400005D9272803D92F2801D9372801D81954C8
:1009500002E03F2800D8195470BDC04626FDFF1F95
:100960000422014B1A607047880000F80422014BF2
:100970001A607047840000F800220C2070B50B4903
:100980000B4C0C4DA318AE185B7876784343002EC1
:1009900004D0CE58CB181B7A337103E0CE58CB1855
:1009A0001B7A33720132162AECD170BD3067000019
:1009B000FB5A0000125B00000C22F0B51C4D4000F9
:1009C000465D1C4C72431C4BA75D9E589A18127AC8
:1009D000002F01D0327100E032720C2228184078CA
:1009E0004243255C98589A18127A002D01D0027162
:1009F00000E002720C22114849000D5C6A43665DFA
:100A00009D589A18127A002E01D02A7100E02A729D
:100A10000C22411849784A43605C9958002803D059
:100A20009A18137A0B7102E09B181B7A0B72F0BDB7
:100A300086FDFF1F295B00003067000066FDFF1F79
:100A40000C22F0B51C4D4000465D1C4C72431C4B03
:100A5000A75D9E589A18127A002F01D0327100E0DB
:100A600032720C22281840784243255C98589A1814
:100A7000127A002D01D0027100E002720C2211489E
:100A800049000D5C6A43665D9D589A18127A002EE3
:100A900001D02A7100E02A720C22411849784A4399
:100AA000605C9958002803D09A18137A0B7102E001
:100AB0009B181B7A0B72F0BD96FDFF1F295B00008F
:100AC0003067000076FDFF1F024B1868C003C00F9F
:100AD0007047C046500000F88023034A9B03136010
:100AE000024A13607047C046040100F8080100F88C
:100AF00010B50121192002F045FE8022014B92031E
:100B00001A6010BD080100F810B5FFF729FFFFF7C4
:100B100033FF10BD10B50400FFF72EFF072C02D8DD
:100B2000210000202FE00F2C04D821000839C9B281
:100B3000012028E0172C04D821001039C9B2022066
:100B400021E01F2C04D821001839C9B203201AE073
:100B5000272C04D821002039C9B2042013E02F2CFF
:100B600004D821002839C9B205200CE0372C04D85C
:100B700021003039C9B2062005E03F2C05D82100FC
:100B800007203839C9B2FFF717FF10BD10B50400B0
:100B9000FFF7F2FE072C02D8210000202FE00F2CD7
:100BA00004D821000839C9B2012028E0172C04D844
:100BB00021001039C9B2022021E01F2C04D82100E5
:100BC0001839C9B203201AE0272C04D82100203993
:100BD000C9B2042013E02F2C04D821002839C9B24F
:100BE00005200CE0372C04D821003039C9B206208A
:100BF00005E03F2C05D8210007203839C9B2FFF79E
:100C00001FFF10BD10B5FFF7B1FE10BD10B5FFF707
:100C1000A7FE10BD10B50400FFF756FF054B0028D6
:100C200001D001221A70002C01D000221A7018780D
:100C300010BDC0467DFFFF1F70B505000124AC420A
:100C400004D80134FFF748FFE4B2F8E770BD10B5EF
:100C5000FFF74EFF10BD002110B5080002F092FD15
:100C60000121080002F08EFD0121022002F08AFD20
:100C70000121032002F086FD0121042002F082FD03
:100C80000121052002F07EFD0121062002F07AFDFF
:100C90000121072002F076FD0121082002F072FDFB
:100CA0000121092002F06EFD01210A2002F06AFDF7
:100CB00001210B2002F066FD01210C2002F062FDF3
:100CC00001210D2002F05EFD01210E2002F05AFDEF
:100CD00001210F2002F056FD0121102002F052FDEB
:100CE0000121112002F04EFD0121142002F04AFDE5
:100CF0000121152002F046FD0121162002F042FDDF
:100D00000121172002F03EFD0021192002F03AFDDA
:100D100000211A2002F036FD10BD10B501210D2072
:100D200002F030FD10BDFFFF73B5114B114C1B6875
:100D3000114901932268019D0B68A81A0F4A9E0071
:100D4000B6580F4AB04209D3012610789B1970405B
:100D500010702560032B00D900230B60127820232C
:100D6000002A01D0074A00E0074A136073BDC0465D
:100D7000C001002084FFFF1F80FFFF1F405B0000B9
:100D8000A6FDFF1F840000F8880000F84069704746
:100D900037B500246B461C705C709C7003680A00B9
:100DA0001D6801AB1C705C709C706946A84737BD1C
:100DB000C82040007047FFFF10B50121040011203A
:100DC00002F0E0FC0223A361014BE36110BDC046C9
:100DD000400000F810B5017800F064FD10BDFFFF81
:100DE000F8B501271B4E1C4C35683D4021D1300021
:100DF00002F079FC00281CD0FF2323736373A373D4
:100E0000E37323746374154B65601A68A774656196
:100E1000A560002A00D11C60114B1A68002A00D07E
:100E200094601C60002323840E4B3000236002F08A
:100E30005EFC0D49002340220331200000F0EAFC53
:100E4000FF23032203734F3B437340338373074BEA
:100E50001A70F8BD8CFFFF1F90FFFF1F8801002054
:100E600098010020585B0000340000207801002029
:100E70007047FFFF002330B50648074C00221D19BC
:100E8000AD5CC1188D540132082AF8D10833402BCB
:100E9000F4D130BDF4FFFF1F26FDFF1F0023180013
:100EA00010B505490022CC18A0540832402AFAD1C6
:100EB0000133082BF6D110BDF4FFFF1F024BC00019
:100EC000181842547047C046F4FFFF1FF7B50024BE
:100ED00003260025144A154B1219525D1B195B5D40
:100EE0001349002A0FD0134A7343507897788446E9
:100EF000127801A8027062460331C91842708770E7
:100F000000F022FD05E073430331C9180A704A70EE
:100F10008A700135082DDDD10834402CD9D106481E
:100F2000FFF758FFF7BDC046F4FFFF1F745B0000DA
:100F300034000020A7FDFF1F7801002000231900C6
:100F4000024A99540133402BFBD17047B4FFFF1F75
:100F5000014B19547047C046B4FFFF1FF7B500247A
:100F60000325114A114BA25CE35C1149002A0DD004
:100F70006B43104A033157789678127801A8C91844
:100F800002704770867000F0DFFC05E06B430331B0
:100F9000C9180A704A708A700134402CE1D10648A1
:100FA000FFF718FFF7BDC046B4FFFF1FB45B00009A
:100FB00034000020A7FDFF1F780100200B7B0A00F2
:100FC00003734B7B10B543738B7B12328373CB7BE4
:100FD000C3730B7C03744B7C43740B680360152351
:100FE0008C7C8474CC7CC47492780275CB56437527
:100FF0004B68436083608B69836110BD002383610C
:101000007047F7B5089D0193AC680134AC60EC689B
:101010000134EC602C6901342C61002494462600D4
:101020001A0027002300644667786E7836063F066C
:1010300001D17640C046BF1900D3FF4300D33F061D
:10104000EC683F0E67436E782C79A61B6E703B04EC
:101050004160C046C0460324013CFDD15B0000D284
:101060008160C046C046C0460824013CFDD1816075
:10107000C046C0460524013CFDD14160C046C04683
:101080000324013CFDD15B0000D28160C046644670
:101090002778C046C0460724013CFDD18160C04688
:1010A000C0460524013CFDD14160C046C046032432
:1010B000013CFDD15B0000D28160C0462E7836062F
:1010C0003F0601D17640C046C0460624013CFDD112
:1010D0008160C046C0460524013CFDD14160C04648
:1010E000C0460324013CFDD15B0000D28160C046B4
:1010F000BF1900D3FF4300D33F060724013CFDD1B5
:101100008160C046C0460524013CFDD14160C04617
:10111000C0460324013CFDD15B0000D28160C04683
:10112000AC683F0E6743C0460724013CFDD1816097
:10113000C046C0460524013CFDD14160C046C046C2
:101140000324013CFDD15B0000D28160C0462E78B3
:10115000EC78A61B2E70C0460624013CFDD18160B0
:10116000C046C0460524013CFDD14160C046C04692
:101170000324013CFDD15B0000D28160C046C04623
:10118000C0460824013CFDD18160C046C04605240C
:10119000013CFDD14160C046C0460324013CFDD165
:1011A0005B0000D28160C0463B04C0460824013C7D
:1011B000FDD18160C046C0460524013CFDD141609F
:1011C000C046C0460324013CFDD15B0000D28160D3
:1011D000C046C046C0460824013CFDD18160C046DF
:1011E000C0460524013CFDD14160C046C0460324F1
:1011F000013CFDD15B0000D28160C0466446A77807
:10120000C046C0460724013CFDD18160C046C046AF
:101210000524013CFDD14160C046C0460324013C89
:10122000FDD15B0000D28160C046AE7836063F0635
:1012300001D17640C046C0460624013CFDD1816004
:10124000C046C0460524013CFDD14160C046C046B1
:101250000324013CFDD15B0000D28160C046BF1970
:1012600000D3FF4300D33F060724013CFDD181603A
:10127000C046C0460524013CFDD14160C046C04681
:101280000324013CFDD15B0000D28160C0462C6983
:101290003F0E6743C0460724013CFDD18160C04634
:1012A000C0460524013CFDD14160C046C046032430
:1012B000013CFDD15B0000D28160C046AE786C7904
:1012C000A61BAE70C0460624013CFDD18160C0461D
:1012D000C0460524013CFDD14160C046C046032400
:1012E000013CFDD15B0000D28160C046AC79A444D2
:1012F000C046C0460724013CFDD18160C046C046BF
:101300000524013CFDD14160C046C0460324013C98
:10131000FDD15B0000D28160C0463B04C04608247A
:10132000013CFDD18160C046C0460524013CFDD191
:101330004160C046C0460324013CFDD15B0000D2A1
:101340008160C046C046C0460824013CFDD1816092
:10135000C046C0460524013CFDD14160C046C046A0
:101360000324013CFDD15B0000D28160C04664468D
:101370006778C046C0460724013CFDD18160C04665
:10138000C0460524013CFDD14160C046C04603244F
:10139000013CFDD15B0000D28160C0466E7836060C
:1013A0003F0601D17640C046C0460624013CFDD12F
:1013B0008160C046C0460524013CFDD14160C04665
:1013C000C0460324013CFDD15B0000D28160C046D1
:1013D000BF1900D3FF4300D33F060724013CFDD1D2
:1013E0008160C046C0460524013CFDD14160C04635
:1013F000C0460324013CFDD15B0000D28160C046A1
:10140000EC683F0E6743C0460724013CFDD1816074
:10141000C046C0460524013CFDD14160C046C046DF
:101420000324013CFDD15B0000D28160C0466E7890
:101430002C79A61B6E70C0460624013CFDD181604C
:10144000C046C0460524013CFDD14160C046C046AF
:101450000324013CFDD15B0000D28160C046C04640
:10146000C0460824013CFDD18160C046C046052429
:10147000013CFDD14160C046C0460324013CFDD182
:101480005B0000D28160C0463B04C0460824013C9A
:10149000FDD18160C046C046C0460324013CFDD159
:1014A000013A01D0C046D3E50198FEBD00B5027BEC
:1014B00089B003AB1A70427B02215A70827B9A700A
:1014C000827C0592C27C0692027D0792C27BDA7012
:1014D000027C1A71427C5A71427D9A7100930CC849
:1014E0000248FFF78EFD09B000BDC046400000F87D
:1014F00070B504000D0088B002F07AF9238CC01A90
:1015000080B23128F8D972B6290001A8FFF756FD3C
:1015100001A8FFF7CBFF00280CD162B6C8239B00BF
:10152000013BFDD172B6290001A8FFF747FD01A8D4
:10153000FFF7BCFFB423DB005843064903F05EFA13
:10154000054E35684519356062B602F051F92084C0
:1015500008B070BD80BB0000C0010020072370B53B
:1015600018490A7801321A40063B13400A70DB0121
:10157000910701D540210B4304210A4201D02022CA
:10158000134305000F3006001033DCB20C35002386
:10159000A979994205D08020400003F02FFA01304C
:1015A000C3B25A1C62431212EB70D1B2002A00D0AF
:1015B00001392970002B01D0013BEB700135AE429F
:1015C000E5D170BD88FFFF1F70B5160088B001918E
:1015D000197801AC6660A660A1745978827CE174C8
:1015E0009B7805002375012A03D12000FFF7B6FF81
:1015F00006E0002363742374E373A373637323739C
:101600000323310020006375FFF7F8FC2B682100ED
:101610009B692800984708B070BD70B5160088B067
:101620000191197801AC6660A660A1745978827C3A
:10163000E1749B7805002375012A03D12000FFF790
:101640008DFF06E0002363742374E373A373637355
:1016500023730023310020006375FFF7CFFC2B6854
:1016600021009B692800984708B070BD70B505003F
:10167000FEF746FF0400280001F056FE001970BD79
:1016800010B5174C200001F00CFA002220001100C8
:1016900001F02CF813492000FEF732FF1249200018
:1016A000FFF7E4FF11492000FFF7E0FF1049200099
:1016B000FEF726FF0F492000FFF7D8FF0E49200054
:1016C000FEF71EFFFEF7D4FE0100200001F06CFEC5
:1016D0000A492000FFF7CAFF200001F08FFC10BD6F
:1016E00018010020F45B0000FC5B0000005C0000BF
:1016F0000B5C00000D5C0000175C00001C5C00002F
:10170000012313B5134C00933C220221200001F069
:10171000D9F9002803D110491048FFF7A7FF20008E
:1017200001F0BFF9200001F069FC2000022100F067
:10173000E0FF2000012100F0E2FF00222000110064
:1017400000F0D4FF0121200000F0DEFFFFF798FF3A
:1017500013BDC046180100201F5C000020FEFF1FC3
:101760007FB5154D1549280001F06BFE144C154E40
:1017700022003100280003F047FE134D13492800D2
:1017800001F05FFE31002200280003F03DFE104B07
:10179000104D0293104B2800019301235B420093EC
:1017A00040220E4B802101F057F8280022000C49FE
:1017B00003F02AFE7FBDC046F80000200D5C00004B
:1017C00020FDFF1FBB33000008010020FC5B000070
:1017D000A086010018010020801A0600ACFDFF1F42
:1017E000B9280000704770B50024047044708470FC
:1017F000A1420ED0165D002E08D01D5D002D05D033
:101800000136013575434D432D0C05550134032C2C
:10181000F0D170BDF8B504000E0017001D1E01DCEC
:1018200015000027236820009B689847032179430F
:1018300023687118616065615B6920009847011E2B
:1018400008D0054803F0DAF8044D6B68834200D2F3
:1018500003006B602000F8BD40420F0078010020BB
:10186000F7B50D4C07002368581C20608B4212DB33
:101870000A4E0B4D33680193FA239B00019958439C
:101880002B68C91A03F030F800232360336878808E
:101890000093009B2B60F7BD8C010020C00100204D
:1018A00094010020F0B505000E0087B06B681E4C57
:1018B000002B06D001F09CFF2368C01A6B68984289
:1018C000F4D301F095FFEB682060002B03D03000CB
:1018D000A96898470600154B1C68002C1ED0A37CF5
:1018E00001936B88632B01D80023A3742368220023
:1018F0005F6863680C3202936369310003932300CD
:1019000005A80F33FFF76FFF05AB2000039A02997C
:10191000B8476B461B79A374A468DEE71921280039
:10192000FFF79EFF07B0F0BD900100208801002066
:10193000FF22044B1A7000225A80DA60013A9A6042
:101940007047C046780100205622F0B506784478EA
:10195000F300DBB25A43857870B2120A40270028A0
:1019600023DB202037400640002F0BD1002E04D16E
:10197000D343DBB210001A0010E05532D0B2AB22D4
:101980003B0033E0002E0BD1AB2755207B43404278
:101990001B12C71A563AFFB2D0B23A00330025E004
:1019A0000026D0431300C0B21FE03800202730408B
:1019B0000CD13E4007D1AB22534355381B0AC01A05
:1019C000C0B2553310E0D343DBB20FE03000160055
:1019D000384004D15536F6B255235B4203E0563EFB
:1019E000F6B2002055239B1ADBB23200FF2C23D025
:1019F000002C1ED0002A03D0661C72431212D2B2F1
:101A0000002803D0661C70430012C0B2002B03D024
:101A1000661C73431B12DBB2E443E4B2661C7443DE
:101A20002412E4B2121900191B19D2B2C0B2DBB2EF
:101A300002E0FF2318001A00FF2D1ED02C00661EA6
:101A4000B4416D432D126419E4B2002C12D0002A67
:101A500003D0651C6A431212D2B2002803D0651C61
:101A600068430012C0B2002B07D0013463431B123D
:101A7000DBB202E02300200022000A7048708B7065
:101A8000F0BD002070470300383039331B780078F0
:101A9000181A70470200010038323931137809787A
:101AA000994204D9591C1170C318187E01E0012015
:101AB0004042704703000200383339321B781278F5
:101AC0009A4202D9C318187E01E0012040427047B3
:101AD00070470300002210B55E331B8893420DD07F
:101AE00004005D342378202B02D90123037105E023
:101AF0005A1C22700122C3183B331970100010BD0C
:101B000070B514000200030000205E321288824289
:101B100012D01D0021225D352878121A944202D974
:101B200001241C7114003B331818220003F0C2FC7E
:101B300020002B781B192B7070BDFFFF43691A68BA
:101B40005B68126813420FD0084A0369914201D8BA
:101B50001F2205E0064A914201D8122200E002222B
:101B60005A70022203699A717047C0467F1A0600B4
:101B70003F420F000200F8B5002304003832137012
:101B80005370243293701370537043668366D3701E
:101B900040696427016842680D682A430A60226927
:101BA0001549937023000C22613360691E788619F1
:101BB000337A5343CB185D68737BE0261B02F60033
:101BC00033403B432B60230062331B78C018837C77
:101BD0005A43C37D89181B024A681E403E43166063
:101BE00006492000FFF7AAFF2023226953718022B3
:101BF00023699A70F8BDC04630670000A0860100D6
:101C0000102270B503690400DD78EDB2154203D1EE
:101C100040222A4004D12BE0DA706B06F8D476E03B
:101C200004231D403A4B1BD0250000225D352A704D
:101C30001A70636E934200D0984723002A783B3392
:101C4000002A02D1012129701A70D02221698A70DC
:101C50001B7822691371230001225C331A7053E050
:101C600001221A70230039331D702269C02330E02D
:101C7000602120698379DBB2194060290CD1403999
:101C80008B438371A36E002B06D0210038310A707C
:101C900022003932107898471023226991780B403E
:101CA0001BD001231D4013D1210020005C315D3089
:101CB0000B780078984206D9581CE31808703B331B
:101CC0001B78137100E01571D023226993701BE01B
:101CD000C023937023691B7916E0210060310B70DB
:101CE000202193790B4321009371236939311A79AB
:101CF0000B78D2B21F2B07D805480078002803D0F4
:101D0000581CE31808701A7602222369DA7070BD35
:101D10009C010020F0B500210400334B85B01B6806
:101D20000293029B019320202269D378034257D06B
:101D30002D4B01981B680393039B1B1A0F2BF2D9A1
:101D4000002945D12500613562692B780531D3180A
:101D5000187A01F017FD2B7862690121D3189F7C56
:101D60000926380001F00EFD0021380001F0EAFCE0
:101D70005023013BFDD10121380001F0E3FC502349
:101D8000013BFDD1013E002EEED10C2166692B787E
:101D9000164DF3181A7A64204A43AA185768E022AD
:101DA0005B7BD2001B02134003433B602300623382
:101DB0001B78F618B37C59436D18F17D6B680902E6
:101DC0000A4010431860A023013BFDD10121AAE77E
:101DD000102BA8D000209070802223699A7000E018
:101DE000012005B0F0BDC046C001002030670000F2
:101DF00012230269F0B5D370202287B003690191E4
:101E00009D780400154002D094329A700BE0FFF7E1
:101E100081FF03000420002B62D023005F331D707C
:101E2000B0232269937020262E4B20691A680292F3
:101E3000029DC278324048D000220225202600921E
:101E400022005D32127800998A4233D962183B32FF
:101E5000127821690A711A6821690592059A9446D7
:101E6000CA78D2B217002F400AD1324208D0604659
:101E70001A680492049A121A052AF1D98F702BE07D
:101E80001020CD702169CA78D2B2024201D132420B
:101E900003D1802304208B700DE0012100980A42B9
:101EA00004D0434258410323181A07E00130C2B25C
:101EB0000092C5E70020019B002B02D080232269FD
:101EC000937000235E3423700AE01968039103992C
:101ED000491B0429ADD982708022042023699A709D
:101EE00007B0F0BDC001002010B50248FFF788FE22
:101EF00010BDC046ACFDFF1F7047F0B515000C00CB
:101F00001E0089B00EAB00229B5E0FAA12880190C2
:101F100005925A1BD11752184A400292321BD11710
:101F200052184A4003920399029A8A4205DD320010
:101F30001E00130022002C001500B44205DD2A000B
:101F40001D001300220034001600321B92B20492CE
:101F50005A1BD11752184A4007926A461021525E06
:101F6000D10F8A1852100092E917DA0F9D425141A1
:101F700001224B421A430692B44221DC019B029A91
:101F80001B6803999B691F00059B8A4202DD2200A2
:101F9000290001E02A0021000198B847009A079B18
:101FA000D31A9BB21AB20092002A06DA069AAD182A
:101FB000049A2DB2D3181BB20093013424B2DBE78C
:101FC00009B0F0BD10B504682469A04710BD37B54D
:101FD00006AC258804680095A46BA04737BD37B5CB
:101FE00006AC258804680095E46BA04737BD73B53F
:101FF00006AC0025655F07AC26880468019600954D
:10200000246CA04773BD7047F0B5160004000D00A6
:1020100085B003930AAB1F8803685B699847039BED
:102020002268013B9B191BB200930197976A2B0012
:10203000320029002000B84723682000DB6A984757
:1020400005B0F0BDF0B505001C000E00170085B00E
:102050000AAB1B88013C03930368A4195B6998478A
:1020600003992A680191009723B23100946A2800ED
:102070003A00A0472B682800DB6A984705B0F0BDFE
:10208000F0B50E0087B003930CAB029200229B5E6A
:10209000050004930DAB1B883400059303685B694E
:1020A0009847039B2A68F3189C420ADA059B210093
:1020B0000093176A049B029A28000134B84724B29F
:1020C000EFE7D36A2800984707B0F0BD13B5019138
:1020D0000C24015F0A22835E02680091146C0022C6
:1020E0001100A04713BDF0B585B002930AAB0024E0
:1020F0001C5F0BAB1B8817000393029B05000E00AF
:10210000026899420BD1A74202DD3B0027001C0068
:1021100003990134E31B00911BB2946B0DE0A742BD
:1021200010D1029B994201DD029E0291029B03990C
:10213000013300919B1BD46B1BB23A003100280085
:10214000A0470FE053699847039A2B6801920094C7
:102150009C6A2800029B3A003100A0472B682800A7
:10216000DB6A984705B0F0BDF0B5040016000D001D
:1021700087B004930CAB00229B5E05930DAB1B88CC
:10218000039303685B699847039A236800925F6A28
:102190003200049B29002000B847059B03995A1E72
:1021A0002368009192195F6A2900049B200012B2F3
:1021B000B847039A236800921F6A3200059B2900E2
:1021C0002000B8470499039A2368013900924D19F9
:1021D00029B21F6A3200059B2000B84723682000FF
:1021E000DB6A984707B0F0BD704703231940C175FB
:1021F000C3880289012904D0032902D04381828146
:1022000001E0428183817047C18041810121002327
:1022100002818281012210B5074C494208340371C2
:102220000460C375C3810382827581824182027614
:102230004376C36110BDC046805C0000F0B5002746
:102240008DB0099312AB049200229B5E0891059316
:1022500013AB00229B5E04000A9314AB1B883D0065
:102260000B9303685B6998470721059B0691073329
:10227000DA170A40D318DB100793049B02936B46CE
:10228000049A1B8903939B1A0A9A1BB29A422DDD6A
:10229000002301936B469B88059A1BB293421EDA7A
:1022A0006A469188069A6D00EDB2114207D10698F0
:1022B000DA170240D318099ADB10D219D55C6BB239
:1022C000002B09DA089B029AC918236809B29B6996
:1022D00020001E000B9BB047019B0133D9E7039BF5
:1022E00001331BB20293079BFF18C8E72368200045
:1022F000DB6A98470DB0F0BD7FB508AC0025645F80
:1023000009AD0026AD5F0AAE3688019502960094AD
:10231000FFF794FF7FBDFFFFF0B597B01D001CAB2A
:102320001B88040003931DAB1E881EAB1F78C36976
:1023300008910292002B00D0BDE00A22835E8B42FE
:1023400000DC57E10C22835E029A934200DC51E1EB
:1023500006237B435B18002B00DC4BE1029AFB0059
:102360009B18002B00DC45E1437E002B03D1AF2DF1
:1023700001D90135EDB2236820005B699847052338
:102380005D430E93002307936B461B8910950993B9
:1023900008339BB21193109A974B9B18079A9B5C3A
:1023A000BAB20B936B469B8B0A93BBB206936B46F8
:1023B0001B8C04930A9B5343049AD3181BB20F93AC
:1023C000099B05930C930D9301220B9B134214D090
:1023D000206897420AD16B469B8A04991AB20A9BDD
:1023E0005918836909B21D00039B16E06A4634211F
:1023F000525E03993BB2019117E0039BB3421AD09E
:102400002068012F0CD16B469B8A04991AB20A9B53
:102410005918836909B21D0033002000A8470AE05B
:102420006A463BB23021525E01960093C16920009A
:102430000D000F99A847069A0B9B94465B080B93D7
:102440000D9B059D63449BB20D930C9B013563442A
:102450009BB20C93ABB20593059A119B9342B3D1F7
:10246000079B01335BB207930E9B013BDBB20E93DC
:10247000002B90D1039BB34200D1B7E02068012F1D
:1024800009D1049900960531056A09B20823029A18
:102490002000A847AAE00521069A01965143049A14
:1024A0003BB25118069A09B2D2000092C569029A4D
:1024B0002000A8479AE01A7AAD1AEDB25A68ED00EA
:1024C0001B68AD1811932B880793AB780A93EB78B0
:1024D00012930523EB560E930623EB560F93012F11
:1024E00008D96B4638229B5E0B936B463C229B5E61
:1024F0000C9302E000230C930B930025236820002B
:102500005B6998470A9B059504930A9A049B129964
:102510009B1AEAB2DBB28A4268D2BAB214926A4615
:102520001289B9B210920C9AAA184A4310998A18C3
:1025300012B215926A46128F0D926A460D99128C4C
:1025400056180992B2B20692049A9A4245D05A1C81
:10255000D2B213920722134207D1079B0799119A0F
:102560000133525C9BB2059207936B461B7D5BB2B5
:10257000002B28DA012F10D10F9A109B20009B18F6
:10258000FF222A40D2186B461B8B12B219B2236865
:102590009B691E00039BB04715E00B9A0D990398A9
:1025A000511A099A3BB2891A069A01905118149A45
:1025B00000935143099A20005118226809B2D26948
:1025C0001600159AB047059B069E5B00DBB20136EC
:1025D0000593B3B20693139BB6E70A9A049B9446FD
:1025E0006344DBB201350493ADB28EE7236820006B
:1025F000DB6A984717B0F0BDD85C0000F0B5C2693F
:1026000085B004000B00002A28D10A2903D1837D5C
:10261000C281DB0029E00D2965D0017E807D002983
:102620000DD00E21655E0621414369180A26A55F7B
:10263000A94204DD218AE281C2008A182282029026
:10264000A08A1021625E0190608A0E25615F009071
:102650002000FFF761FEA37D062240E00A2908D191
:102660000023C381927A837D5343228A9B1823825D
:1026700039E00D2937D0157AA94234D3517A9942DD
:1026800031D351685D1BED006D18A978002924D065
:10269000E878002821D0267EA07D002E11D00526C6
:1026A000AE57711841430E27E65F89190A27E65F86
:1026B000B14206DD0021E181927A218A424352181B
:1026C00022820290A08A1021625E0190608A0E260A
:1026D000A15F00902000FFF71FFE2B79A27D5343DE
:1026E000E2899B18E381012005B0F0BDC18102821F
:1026F00070470123002900D00B0083757047818249
:1027000041827047C07D7047417670470A23C05EA2
:1027100070470C23C05E7047036899710268137894
:102720005BB2002BFBDA9079C0B27047F8B50600B7
:102730000D0014001F00002963DBFFF7E7FFA8422C
:102740005FDD002C5DDB3000FFF7E3FFA04258DDCA
:102750003000FFF7D7FF022807D1F388013B5D1B4C
:1027600033892DB2013B1C1B06E003283FD12B000F
:1027700025003489013CE41A24B2012F14D0002F23
:1027800023D0022F3DD10721E3170B401B19062050
:10279000325EDB1053435D19B36A0C405D190123AF
:1027A000A3402A78534020E00721E3170B401B1970
:1027B0000C40A7400620325EDB1053435D19B36A1C
:1027C0005D192B781F432F701BE00721E3170B4087
:1027D0001B190620325EDB10534301220C40A2403D
:1027E0005D19B36A5D192B7893432B7009E00128BA
:1027F000C3D16540F3886C40013B65405D1B2DB241
:10280000BBE7F8BD10B50121FFF7F2FA10BDFFFFDD
:10281000836882B00191002B07D072B6084A8168A4
:1028200013680B40C360136062B601AA0168137895
:10283000CB700AC81B7AD3185B784B7002B0704714
:1028400080E100E08368002B02D0C268014B1A606F
:102850007047C04600E100E070B50025040012B2E8
:102860001E0009B204AB5D57FFF7CEFC104B114AB6
:1028700008332360002323629E4200D0320062624C
:102880002200A362FF232F32137053709370D37012
:1028900023005022202133331D7021331A705970C8
:1028A0009A70059B2000A365069BE36570BDC0463A
:1028B000F0610000ACFDFF1F054B10B508330400AC
:1028C0000360806A002801D002F0EAFD200010BDFC
:1028D000F0610000F8B5436A04000D00002B19D028
:1028E000020019002C3212783B3152000A7001228A
:1028F00023315D330A701A70406A002103681B6837
:102900009847606A290003681B689847606AFFF768
:1029100079FF24E0C26BC16C1368006A8B431360BB
:10292000002803D02900FFF7F7FE18E008208026D2
:10293000A36B626B616C17682E4201D0394301E0D2
:102940008F43390011601A68A16C01380A431A607C
:102950001A68A16C76088A431A600028E9D1F8BD8C
:1029600070B50400406A0D00002803D0A16DFFF788
:10297000E5F80AE0206A002802D0616DFFF748FF01
:10298000226C216D13688B43136029004D1EA941F1
:102990002000A631FFF79EFF606A002803D0E16D9A
:1029A000FFF7CCF809E0226C216D1368206A0B4315
:1029B0001360002801D0FFF745FF70BDF7B5436AEB
:1029C0008A1804000D000192002B3AD00200190071
:1029D0002C32009212783B3152000A701A00012604
:1029E0005E325D3316701E70406A00210368370046
:1029F0001B689847019BAB421FD01F2E14D9606AF9
:102A0000FFF700FF636A009A190012783B31520009
:102A10000A701A005D335E3217701F70606A002101
:102A2000036801261B689847606A297803680136A5
:102A30001B689847F6B20135DCE7606AFFF7E2FEF3
:102A40002EE0C26BC16C13688B431360019B9D42E7
:102A500026D02B78206A0093002804D01900FFF7B5
:102A60005BFE0135F2E708208026A36B676C626B82
:102A70000099BC4617680E4202D061460F4301E040
:102A800061468F4317601A68A16C01380A431A60C7
:102A90001A68A16C76088A431A600028E6D1E0E73C
:102AA000F7BD10B50822835E07220733D9170A4005
:102AB000D3180621425EDB105A43806A002102F0DF
:102AC00002FD10BDF0B587B004930CAB1B78040079
:102AD0000593836A0F001500002B10D10822835E36
:102AE00007220733D8171040C3180622A05EDB1058
:102AF000584302F0CBFCA062031E00D140E120004D
:102B0000FFF7CFFF0823E25E0623E15E202A11DDF6
:102B1000403AD30F52399A18CB0F59180123029318
:102B20003F335210491001931233009312B209B28D
:102B3000954B10E0203AD30F73399A18CB0F5918E0
:102B4000012302931F330193533352104910009312
:102B50008E4B12B209B2260020002D36FFF7CCFBB7
:102B60003770606A002813D0002D06D10823E55E77
:102B7000203D6B1E9D413C3500E06DB223002C339F
:102B80001D70059B002B00D1F5E0FEF7F3FF4DE033
:102B900025002700313528780121323700F0F2FD79
:102BA0003878012100F0EEFD00230C22EB56784D21
:102BB00053435A59EB18E2631B7A0C22E364002357
:102BC000FB56206A53435A59EB182264197A21653F
:102BD00013680B431360002805D0059B002B25D0FC
:102BE00000F0BAFA22E027002F373878012100F0F0
:102BF000C9FD2300303305931878012100F0C2FD90
:102C000000230C22FB5653435A59EB1862630C22E3
:102C10001B7A6364059B1B785BB253435A59ED18CA
:102C2000A263297AA16413688B431360049B002B71
:102C30001BD02500002033352856002815DBC0B2F4
:102C4000012100F09FFD0121287800F07BFD01208B
:102C500000F0F2FD0021287800F074FD0A2000F059
:102C6000EBFD2878012100F06DFD606A002803D09B
:102C7000A16DFEF763FF0AE0206A002802D0616DB3
:102C8000FFF7C6FD226C216D13688B43136004228D
:102C900040492000FFF792FE218920000139C9B286
:102CA000FFF718FE3C4904222000FFF787FE0023AF
:102CB000F3561421012B00D104392000FFF70AFE3E
:102CC000042236492000FFF779FE0622A35E802BFE
:102CD00017D10822A35E202B05D104223049200001
:102CE000FFF76CFE21E0402B1FD12E49032220006C
:102CF000FFF764FE0023F356CF21012B12D13039A8
:102D000010E0602B11D10823E55E102D0DD126496E
:102D100003222000FFF752FE0023F356AF21012BC0
:102D200000D129002000FFF7D5FDD9212000FFF7B1
:102D3000D1FD0023F356F121012B00D1CF39200022
:102D4000FFF7C8FD200006221849FFF737FE606A2A
:102D5000002803D0E16DFEF7F1FE0AE0226C216D40
:102D60001368206A0B4313600123002808D0FFF783
:102D700069FD012304E0049B002B00D059E777E7AD
:102D8000180007B0F0BDC046416400004F6200006B
:102D9000306700002F6400003364000037640000D7
:102DA000486200004C620000016700003B640000C4
:102DB000F0B5150005AA1788002D42DB0824025F34
:102DC000AA423EDD002902DA59180BB2002106247E
:102DD000025F5C18944201DD531A1BB2002B30DDF8
:102DE0000726EC1734406419E41062435118826AD4
:102DF00001203540A8405218C0B2012F04D0002F46
:102E00000BD0022F14D01CE0013B1BB2591C18D070
:102E10001178014311700132F6E7C043C0B2013BA3
:102E20001BB2591C0DD01178014011700132F6E728
:102E3000013B1BB2591C04D0117841401170013282
:102E4000F6E7F0BDF0B505AC2588002900DA81E091
:102E50000624065FB1427DDA002A02DA9B180022BE
:102E60001BB20827C45FD718A74201DDA31A1BB203
:102E7000002B6FDDD2B2DCB2D30873435918836ADA
:102E8000591807231A4024D001339A1A324BD2B270
:102E90009B5C94420AD2FF26171B3E413340012D12
:102EA00006D0002D09D0022D54D10AE0012D02D107
:102EB0000E78334307E0002D48D10E789E4333004F
:102EC00001E00E7873400B70944243D30626835F73
:102ED000C918A31ADBB2072B1DD9022D0BD11A007A
:102EE0000C78083AE4430C700625445FD2B2091905
:102EF000072AF5D821E02C00621E94411A00644292
:102F0000E4B20C700627C65F083AD2B28919072AC4
:102F1000F7D807221340002B1CD0104AD35C012D98
:102F200004D0002D05D0022D14D10BE00A781343F4
:102F30000AE00A789A43130006E00722134009D0FA
:102F4000064AD35C0A7853400B7003E0022DB8D0D8
:102F50008919BEE7F0BDC046E5610000D8610000F8
:102F600037B506AC2588C47D022C08D0032C0FD0C1
:102F7000012C18D1C488013CA41A24B20DE00489A4
:102F8000013CA41A22B2C488611AC91A09B20AE023
:102F900014000289D21A511A09B20A0000952100C0
:102FA000FFF750FF02E00095FFF702FF37BD37B58E
:102FB00006AC2588C47D022C08D0032C0FD0012C30
:102FC00018D1C488E41AA41A24B20DE0C488013CC4
:102FD000611A048909B2A21AD41A22B20AE01400B2
:102FE0000289013A511A09B20A0000952100FFF73F
:102FF000DFFE02E00095FFF725FF37BDF7B50400BF
:10300000406A002803D0A16DFEF798FD0AE0206A0F
:10301000002802D0616DFFF7FBFB226C216D136865
:103020008B43136005224B492000FFF7C7FCE18862
:1030300020000139C9B2FFF74DFC0822A35E072228
:103040000733D9170A40D318E288DB105343A56A27
:103050009BB2626AEB180193002A3AD02300110058
:103060002C3300931B783B315B000B70130001265F
:103070005E335D321E701670606A4021036837004F
:103080001B689847019BAB421FD01F2E14D9606A62
:10309000FFF7B8FB636A009A190012783B315200BF
:1030A0000A701A005D335E3217701F70606A40212B
:1030B000036801261B689847606A2978036801360F
:1030C0001B689847F6B20135DCE7606AFFF79AFBA8
:1030D0002EE0E26BE16C13680B431360019B9D4291
:1030E00026D02B78206A0093002804D01900FFF71F
:1030F00013FB0135F2E708208026A36B676C626B37
:103100000099BC4617680E4202D061460F4301E0A9
:1031100061468F4317601A68A16C01380A431A6030
:103120001A68A16C76088A431A600028E6D1E0E7A5
:10313000606A002803D0E16DFEF700FD09E0226C13
:10314000216D1368206A0B431360002801D0FFF73C
:1031500079FBF7BDE0610000416830B50A684B6853
:103160001468174D23431360502302680C24D37056
:10317000002302689370036841681B78037CCA18B7
:10318000127F083362439B00AA185B585268136091
:10319000427C8B181B7C043263439200EB188A1824
:1031A0005B6852681A60837CCA18283212780A3326
:1031B00054439B002C19CB1862685B68136030BDC8
:1031C00030670000EFF3108072B643425841C0B23E
:1031D0007047002800D062B67047FFFF10B5FFF7B8
:1031E000F1FF0C4A1468002C10D063691360002BA7
:1031F00002D000229A6101E0074A1360FFF7E9FF5D
:10320000002320006377A3689847E8E7FFF7E1FF12
:1032100010BDC046A0010020A401002010B5FFF79A
:10322000DDFF10BD164930B50B68002B02D183605D
:10323000C36009E004681A68944207D20025121B93
:103240008360C560D8601A60086016E002681C6878
:103250009968121B026000290CD00C680B00A24276
:10326000F4D28160C968A21AC160D860C168886060
:103270001A6002E08160C36098600223037530BD6C
:10328000A801002070B5174D2C68002C19D02368B8
:10329000002B02D0013B236013E0A268002A00D07B
:1032A000D360002120692A60036821751B68220011
:1032B00098476368002BE7D023602000FFF7B2FF38
:1032C000E2E7FFF77FFF0022074B1C681A60FFF759
:1032D00080FF002C05D0A5682000FFF7A3FF2C007D
:1032E000F7E770BDA8010020B801002010B5034A1F
:1032F000136801331360FFF7C5FF10BDC001002044
:10330000F8B50600081E0DD00C0000258F18BC4231
:1033100007D0336821781B683000984701342D1896
:10332000F5E72800F8BDFFFF37B5022504002A00A5
:10333000054901A802F0BEF823682A005B6801A9CC
:10334000200098473EBDC04604670000F0B50D0060
:103350000F2185B09446134A6944ACB22F0C5743F1
:1033600001345443BBB2260C1C19A4193B0C240C89
:10337000DB19E3180A245B085C432D1B3035013947
:103380000D701D1EE9D16346002B02D02D2301399B
:103390000B70CA4304ABD21803685B68984705B04A
:1033A000F0BDC04633330000002210B5914201DA6F
:1033B00049422D32FFF7CAFF10BD10B50400006866
:1033C00002F06EF8200010BD70B504000D0000681A
:1033D000013102F02DF9031E01D0012028C470BD77
:1033E000436810B504008B4208D2FFF7EDFF0028B8
:1033F00005D0A368002B01D122681370012010BDF5
:10340000F8B504000F00151E05D10368002B00D08D
:103410001A7000230CE01100FFF7E2FF061E09D12D
:103420002068002802D002F03BF826600023636089
:10343000A36004E0A5603900206802F015F92000BF
:10344000F8BD002370B504000D0003604360836085
:103450000373994207D0080002F00EF92900020018
:103460002000FFF7CDFF200070BDFFFF8023F0B5E7
:103470001D4A10681840FCD172B61C4C2378002BF2
:1034800030D01B4B1F681B4B1A681B4BBA181E68A9
:103490001A4B92191D681A4B52191968194B521878
:1034A0001B68194DD21892B25208184B2A4392B297
:1034B0001A60174B17491B68174A9C46174B1B6825
:1034C00012680F68164963440E6816499B1809680C
:1034D000DB199B195A1893B25B082B43124A9BB213
:1034E0001360207062B6F0BD24B00340BD0100201F
:1034F00038B003403CB0034040B0034044B0034008
:1035000048B003404CB003400080FFFF2CB00340A4
:1035100058B0034064B0034060B003405CB0034067
:1035200068B003406CB0034030B003401B4B1C4AF2
:1035300019781C4B082901D1002102E00A2903D186
:103540002E311160132206E00C2901D1283100E050
:103550003C21116012221A60134B1A78134B002A77
:1035600001D0002200E001221A60114B1A78114BA1
:10357000012A01D880220CE0042A01D8842208E024
:10358000082A01D8852204E0102A01D8862200E00A
:1035900087221A600122084B1A70704718FEFF1F1D
:1035A00008B003400CB00340BF01002020B003402E
:1035B00019FEFF1F24B00340BD010020F8B5030031
:1035C0000020272B33D81A4AD45CFF2C2FD0194B5C
:1035D0001B78834201D0FFF749FF72B610274022C3
:1035E000154B144205D01A68BA431A603F231C4099
:1035F00002E01A683A431A600123104E104D3460FD
:103600002B7062B672B680223368134208D00D4B1D
:10361000186800232B7062B60B4B1B78184106E02C
:103620002B78002BDBD062B600F060FFEAE7F8BD34
:1036300006670000BD0100200CB0034000B003404D
:10364000BE01002010B00340BC01002010B5FCF703
:103650006FFFFCF7C1FF00F049FFFAE770B5802566
:103660008026ED02F6000B4C23682B4201D000F0BF
:1036700029FA2368334201D000F09CFF23681B0520
:1036800001D501F003F82368DB04ECD501F06AF8FA
:10369000E9E7C0463480044010B5FFF7DFFFFFFFC5
:1036A0000022014B1A607047008104407047FFFF01
:1036B0000A49030010B50868002B0DD06A46084C73
:1036C000C3181219934206D301F0B4FE0C23036011
:1036D0000120404200E00B6010BDC0461CFEFF1FF1
:1036E00000FEFFFFFEE70078434258417047012388
:1036F00003707047F8B506000D001700002439006C
:10370000300001F077F90B003733DBB2092901D81B
:103710003031CBB230002B55390001F0E5F8061EF0
:1037200001D00134EBE72B1958702B005A1B94423F
:1037300006DD1A78295D19702A550133013CF5E739
:103740002800F8BD10B51A2818D80C2358430C4A85
:10375000835810181C7D027A224205D0002901D01E
:103760001A710BE01A7209E043681A68002902D046
:1037700003210A4301E002218A431A6010BDC046BA
:1037800030670000F0B51A282FD80C2217004743E5
:10379000164CE5196B682600012901D0042911D1C6
:1037A000504334583018257D027A20202A43227550
:1037B000A22252001A601A68042901D1024313E0C0
:1037C000824311E038592C7A027DA243027580228F
:1037D000002908D0022902D10422FF3204E000228D
:1037E000032901D1812252001A60F0BD3067000028
:1037F00072B60C4B1A680C4B18680C4B1B6862B6FF
:103800005B0104D5322393429B415B42C018084BB5
:103810009A1A084B5A43FA239B005843920D1018EA
:103820007047C04618E000E0C001002004ED00E051
:103830007FBB00005555010070B50400FFF7D8FFAD
:103840000500002C0FD0FFF7D3FF074B401B984219
:1038500006D9013C002C06D0FA239B00ED18F2E7B4
:1038600000F044FEEFE770BDE703000080221E4B2E
:10387000D20510B51A608022002012061A601B4B78
:103880001B4918601B4B1C4A1960282313601B4AF4
:103890001B4C13601B4A13601B4A13601B4A1360C6
:1038A0001B4A1360092222601A4C20601A4C2160C6
:1038B0001A4C23601A4C23601A4C22601A4C206068
:1038C0001A4801601A490B601A490B601A4B1A60BA
:1038D000FFF72CFE1920FFF7AFFF00F0E1FB1420EB
:1038E000FF30FFF7A9FF10BD00E100E004800340B6
:1038F000FFBF0000088003400C8003401480034099
:10390000008003401C800340248003402C8003403F
:103910003480034004900340089003400C9003401F
:10392000149003400090034004A0034008A003400B
:103930000CA0034014A0034000A003400223F0B5F4
:103940000A4A0B4E1478C8272343DB00F518686039
:1039500008480578002D00D1403F09040F43F75077
:1039600001235D405C4005701470F0BD2C02002006
:1039700000F8FF1FA4020020431E10B50020032BF7
:103980000ED872B6074A99008858002807D04468B4
:103990005B008C50044904885A5A121B5A5262B672
:1039A00010BDC0461C0200203C040020431E002025
:1039B000032B09D872B6054A9B009B58002B02D0F6
:1039C00001305B68FAE762B67047C04670020020BB
:1039D000F8B572B60123174A082594461E00164909
:1039E00064465A1EA25C2A421AD05F017C589A0093
:1039F000002C05D1CB1908305860104BCB5109E091
:103A00003243D2005458002C0AD18B180830586029
:103A10000B4B8B500B4A1378013B137062B608E0D6
:103A20000133052BDCD162B60022064B1A7000F080
:103A3000D1FBF8BD9C68000000F8FF1F8800400023
:103A4000C80040009A020020421E10B5032A30D858
:103A5000022380001843174BC0001B1872B6164C87
:103A6000A05C03280BD800F02BFF160402070520EA
:103A700012E0083302200FE0083304200CE00F4866
:103A8000920014580E4B002C01D1115001E09858AF
:103A9000416099500CE00320A0540A0008325A609B
:103AA000C822180700D4403A098809040A431A605A
:103AB00062B610BD00F8FF1FD80100207002002080
:103AC00080020020F7B5B64B1C781D000423E4B239
:103AD0001C421DD0B34B1B78002B16D0B24A137872
:103AE000DBB2002B05D0013BDBB21370002B00D101
:103AF00000BEAE4A1378DBB2002B06D0013BDBB22E
:103B00001370002B01D100F0CDFC0422A44B1A70DD
:103B10000822224000D159E2A54BA64F1B78DBB208
:103B20009C08E4001D093C19002D00D0DFE122684B
:103B300063689006000F01380C2800D9D3E100F02B
:103B4000C9FE96019601D201D201D201D201D20161
:103B5000D201AF01D201D201D2010D001A68964EF6
:103B60005B689649736000230B60012194483260C2
:103B70002060944C92B22170934C3B61BB610190E8
:103B8000A24218D8D020C000824200D3E7E08120B2
:103B90004000824200D1C4E006D8802A00D1A9E0CA
:103BA000822A00D1ABE0F7E0884B9A4200D1C7E00F
:103BB000FF33FF331AE08648824200D154E110D827
:103BC00088231B019A4200D18EE080339A4200D0B4
:103BD000E2E03C003D00B278724B20341A70A03510
:103BE00008E07C498A4200D1CEE07B4B9A4200D16A
:103BF00014E1D1E080222368134203D060680838C2
:103C000000F0E8FA0834AC42F4D100242500734BEC
:103C1000E058002805D04368009300F0DBFA0098D4
:103C2000F7E76E4B18516E4BE0506E4BE058002892
:103C300005D04368009300F0CDFA0098F7E7694B90
:103C4000694A1851694BE0506B00D052684BE85CF0
:103C50000238032807D800F033FE020402040022D1
:103C600000E001225A5501350434042DCFD1002340
:103C70000124604D2B70604B6049621EE3188A5C22
:103C80009B001A7008231A4220D000F085FA6301C5
:103C9000002805D0FA1808305060594AFA5003E05D
:103CA000F8502B7801332B7000F076FA0122A30034
:103CB0001343DB00002805D0FA1808305060019A41
:103CC000FA5003E0F8502B789B182B700221002348
:103CD000A2001143C9007B5003210A438A400134EA
:103CE000BB50052CC7D19AE02E4B464C1B78237055
:103CF0000B0095E0434C23706370022390E07F2219
:103D0000B0880240042A47D83E4C9200237063706A
:103D10003D4BD218022312781A4200D180E0217064
:103D20007EE07F23B2881A40042A35D87388002B9E
:103D300032D102203449920052181178814329E08F
:103D40007F23B2881A40042A26D87388002B23D1F7
:103D500002202D4992005218117801431AE072880E
:103D6000B1882A4B5C68002C16D01888904209D183
:103D70005888884206D1120A032A01D123784FE0DD
:103D80001B894DE00C33EDE7214A1168214A11608F
:103D9000B178214A117042E00F221B4B1A7063E088
:103DA00080200740A30200202D020020A502002051
:103DB0009020074000F8FF1F90020020C40100205F
:103DC000C8004000A4020020810600000203000099
:103DD0002120000021220000212300001C020020DD
:103DE000C8010020700200203C0400208002002056
:103DF000D80100209A02002030C801109C68000001
:103E0000880040009B020020C0200740A0680000FE
:103E1000C00100204C040020B402002000231C003C
:103E2000F5889D4200D91D002E00402D00D9402666
:103E300020003100FFF782FDA419AD1B03D12F0034
:103E4000402E04D010E04027AF4200D92F002000C0
:103E50003900FFF773FDE419ED1B01D1402F03D1A9
:103E6000764B1C60764B1D800122764B3AE07649FA
:103E7000764A0988914210D100227549985C88548D
:103E80000132072AFAD10B68862B02D1714B083216
:103E90001A7000210800FFF751FD6F4B236022E0EC
:103EA000664F3E68002E13D0654B1C882500402CC1
:103EB00000D9402529003000FFF740FD641B604B0E
:103EC000A4B21C80002C01D1402D00D174193C609B
:103ED000A0225D4BD2001988914204D100225A7071
:103EE0009A785E4B1A700122564B1A706AE00822CB
:103EF0006068013D0838EDB2134037D000F06AF930
:103F00005749A8004258574B002A1CD056684650C3
:103F10001100585D0831616003280BD800F0D0FC17
:103F200002040608032104E0022102E0052100E06A
:103F3000042159550821C8230C4200D1403B128866
:103F4000120413433DE0585D032808D800F0B8FC84
:103F50003A3A0204002200E001225A5532E00822D7
:103F60001440621E944102345C552BE02268110C0F
:103F70008AB2028000291ED03B4943804360AB00D7
:103F80005F583A4E002F01D1585001E0F158486077
:103F900037496D00F0506B5AD2186A5200F0FCF8A5
:103FA000002802D00830606005E0324A20601378B3
:103FB0000133137006E008231C4201D12E4B00E0B0
:103FC000254B236008222D4B1A707CE5012004420A
:103FD0001ED002231B49284C0B70294B294E1A7006
:103FE000294B1C609C60294C1A61DC600D249A618D
:103FF0005E60274B1C70FF23264C2370174C2B70E0
:104000002270254A13709F22244B1A70087013E007
:1040100063B2002B04DA0D221D4B1A7080232B7023
:104020000222144204D01B490B78DBB20B702A70B9
:1040300010231C4200D02B70F7BDC046C4010020E5
:1040400098020020942007409002002021200000C8
:10405000440400202D020020C800400098200740A2
:1040600070020020D80100201C020020C80100209E
:104070003C0400209A020020880040008020074075
:104080002C020020DC01002000F8FF1F300200207D
:10409000C0200740882007408C200740842007402C
:1040A00010B500F0D1FB002211001B4BD150981825
:1040B00008324160882AF9D180201849C0020A6874
:1040C00002430A601A0A1649D2B20A701A0C15493C
:1040D000D2B20A70144A1B0E1370FF23134A002039
:1040E0001370134A13491370134A137001220A7094
:1040F0001249087012490A70124A116899430B005C
:1041000070210B43136080220F4B52041A6010225F
:104110000E4B1A7010BDC04600F8FF1F34800440DB
:104120009C200740B0200740B42007408020074073
:1041300088200740942007401020074000210740B6
:104140008420074018E400E000E100E00821074077
:1041500010B500F0BFF810BD10B500F08BF810BD21
:1041600010B500F05FF810BD10B500F0A3F810BD59
:1041700010B500F069F910BD10B500F03FF910BDA1
:1041800010B50800110000F0BFF810BD10B5080010
:1041900000F02AF910BD704770B572B60B4D2C684F
:1041A000200000F051FD0B2802DD62B600200CE07B
:1041B00080231B06C3409C432C6062B648235843AF
:1041C000034B181800230360436070BD30FEFF1FCF
:1041D000C0F9FF1F10B504000E484821201A00F056
:1041E00083FB0B2814D80C4B1B78002B07D00B4BF0
:1041F0001B78002B03D02000FFF7EAFB08E072B623
:1042000080231B06C340064A11680B43136062B645
:1042100010BDC046C0F9FF1F9A020020A302002073
:1042200030FEFF1F70B5114D2B68002B0CD0286895
:1042300043885A1CC3181C7A03889A4212D3FFF78A
:10424000C9FF00232B600EE0094B1B78002B02D125
:104250000120404208E00320FFF78EFB2860002881
:10426000E5D1F5E74280200070BDC046B0020020D5
:10427000A302002010B50D4C2368002B03D0226848
:10428000002A0ED103E00A4B1B78002B02D101203B
:10429000404209E00320FFF76FFB20600028EED1C9
:1042A000F5E75388D318187A10BDC046B002002035
:1042B000A3020020054B9888054B1A68002A03D0FA
:1042C000138852889B1AC0187047C0463C040020CF
:1042D000B002002010B50A4B1B78002B0FD0094C00
:1042E0002068002803D0FFF775FF00232360032018
:1042F000FFF742FB002802D0FFF76CFFF7E710BD85
:10430000A3020020B0020020314A0123F0B50C00C6
:10431000170085B00190029113700393002C53D0C5
:104320002C4D2B68002B25D12B4E2C4B1B78DBB250
:10433000002B01D13B7017E00420FFF737FB072863
:1043400009D86B461B7B3B70FFF726FF214B18609B
:1043500000280FD13870013E214B002E02D01A7870
:10436000002A04D001221A70012040422EE000F001
:10437000BDF8DAE700221A4B29681A7040234A88F0
:10438000981A2300844200D90300080008308018DE
:10439000D2184A800022E41A934204D0019EB65CEF
:1043A00086540132F8E7019AD31801934B883F2BCA
:1043B00006D9402304200B80FFF746FB00232B6027
:1043C0000522084B1A70A9E702983C7005B0F0BDB1
:1043D000A6020020A802002009750000A302002008
:1043E000AC020020A502002007B56B46D871073348
:1043F00001211800FFF788FF0EBDFFFF012370B5F4
:104400000E4C0F4D23702B68002B10D10D4B1B78D9
:10441000002B02D1002020700FE00420FFF7C6FA25
:104420000728F7D8FFF7B8FE28600028F2D02B68DD
:1044300058884023181A0023237070BDA60200205C
:10444000A8020020A3020020F7B5124B1B78002B16
:104450001FD00126104F114B3C681E700193104D68
:10446000002C09D000262E706388210023800420B0
:10447000FFF7EAFA3E6009E0FFF78EFE011E04D066
:1044800004202C70FFF7E0FA00E02E700023019A60
:104490001370F7BDA3020020A8020020A60200208E
:1044A000A502002070B50E4B1C78E4B2002C15D18B
:1044B0000C4D2968002906D04B8804200B80FFF79B
:1044C000C3FA2C600AE0FFF767FE011E03D0042048
:1044D000FFF7BAFA02E00122034B1A7070BDC04622
:1044E000A6020020A8020020A502002070B5234CDF
:1044F0002378002B40D101332370FFF7DBFE002827
:1045000001D0FFF748FE00F045F8002801D000F088
:104510003DF800F0ABF8002801D000F038F800F0CA
:1045200011F9002801D000F033F800232370EFF3D5
:104530000583002B20D1EFF3108272B6104D28684E
:10454000002803D00F4C2178002903D0002A13D172
:1045500062B611E00123237043692B60002B01D068
:10456000996101E008490B60002A00D162B600257C
:10457000836845779847257070BDC046B502002016
:10458000B0010020B4010020AC010020704770474A
:104590007047FFFF054B1878054BC0B21A78D3B2AD
:1045A000984200D24030C01A7047C04639030020FC
:1045B000B702002030B5234A13799B0611D5224B50
:1045C000D479187819000130E4B200233F2800DCC8
:1045D00003001E480078834203D01D48C454DBB258
:1045E0000B70D1781748C9B24BB2002B17DA037998
:1045F0005BB2002B13DA174B174C1D782378DBB214
:104600009D4202D16C23C37009E001333F2B00D9D6
:1046100000231248C05CDBB2C0B2D07123704023CB
:1046200019420ED0117919420BD000210C4B197090
:104630000C4B1B688B4202D00B49097819722C2352
:10464000D37030BD00A0064039030020B70200201F
:10465000F8020020400300203A030020B8020020A6
:10466000B60200203C03002038030020054B1878D8
:10467000054BC0B21A78D3B2984200D24030C01A6B
:104680007047C046AC0300204203002030B5234AE7
:1046900013799B0611D5224BD47918781900013073
:1046A000E4B200233F2800DC03001E480078834268
:1046B00003D01D48C454DBB20B70D1781748C9B27F
:1046C0004BB2002B17DA03795BB2002B13DA174BCE
:1046D000174C1D782378DBB29D4202D16C23C37046
:1046E00009E00133272B00D900231248C05CDBB25C
:1046F000C0B2D0712370402319420ED011791942F3
:104700000BD000210C4B19700C4B1B688B4202D054
:104710000B49097819722C23D37030BD00B00640C4
:10472000AC030020420300206B030020B4030020F0
:10473000AD0300204303002041030020B00300200C
:10474000AB030020054B1878054BC0B21A78D3B2E2
:10475000984200D24030C01A7047C046280400205A
:10476000BD03002030B52C4A13799B0623D52B4B73
:10477000D479187819000130E4B200233F2800DC16
:10478000030027480078834203D02648C454D8B297
:1047900008702549086800280DD024490978C9B255
:1047A0008B4201D35B1A01E05B1A4033272B02DDF9
:1047B0001F4B1B780371D1781748C9B24BB2002B3D
:1047C00017DA03795BB2002B13DA1A4B174C1D78FA
:1047D0002378DBB29D4202D16C23C37009E0013320
:1047E000272B00D900231448C05CDBB2C0B2D071C3
:1047F0002370402319420ED0117919420BD00021A9
:104800000E4B19700E4B1B688B4202D00D49097874
:1048100019722C23D37030BD00C00640280400203C
:10482000BD030020E7030020B80300202904002076
:10483000E603002030040020BE030020BC0300205B
:104840002C0400202704002030B585B072B67022F9
:104850004121154B1A70154A1170154A32391170E1
:1048600080221A701A7852B2002AFBDA114B1868AB
:1048700062B6114B984201D80A23584301AC0A2270
:104880002100FEF737FF00230C48E15C05000029FA
:1048900005D05A008218013351800A2BF5D101331B
:1048A0005B002B7005B030BD0000024007000240E5
:1048B00006000240080002407F969800BCFEFF1FE1
:1048C00002B4714649084900095C49008E4402BCA3
:1048D0007047C04603B47146490840004900095A70
:1048E00049008E4403BC7047002243088B4274D3B6
:1048F00003098B425FD3030A8B4244D3030B8B42E1
:1049000028D3030C8B420DD3FF22090212BA030CE9
:104910008B4202D31212090265D0030B8B4219D3CA
:1049200000E0090AC30B8B4201D3CB03C01A5241EA
:10493000830B8B4201D38B03C01A5241430B8B4232
:1049400001D34B03C01A5241030B8B4201D30B031B
:10495000C01A5241C30A8B4201D3CB02C01A524142
:10496000830A8B4201D38B02C01A5241430A8B4205
:1049700001D34B02C01A5241030A8B4201D30B02EE
:10498000C01A5241CDD2C3098B4201D3CB01C01A08
:10499000524183098B4201D38B01C01A5241430912
:1049A0008B4201D34B01C01A524103098B4201D300
:1049B0000B01C01A5241C3088B4201D3CB00C01A6D
:1049C000524183088B4201D38B00C01A52414308E5
:1049D0008B4201D34B00C01A5241411A00D201460A
:1049E000524110467047FFE701B5002000F0F0F893
:1049F00002BDC0460029F7D076E7704703460B4357
:104A00007FD4002243088B4274D303098B425FD3C7
:104A1000030A8B4244D3030B8B4228D3030C8B42F3
:104A20000DD3FF22090212BA030C8B4202D31212D9
:104A3000090265D0030B8B4219D300E0090AC30BAE
:104A40008B4201D3CB03C01A5241830B8B4201D35B
:104A50008B03C01A5241430B8B4201D34B03C01A44
:104A60005241030B8B4201D30B03C01A5241C30ABC
:104A70008B4201D3CB02C01A5241830A8B4201D32D
:104A80008B02C01A5241430A8B4201D34B02C01A17
:104A90005241030A8B4201D30B02C01A5241CDD2BC
:104AA000C3098B4201D3CB01C01A524183098B4207
:104AB00001D38B01C01A524143098B4201D34B01F0
:104AC000C01A524103098B4201D30B01C01A524153
:104AD000C3088B4201D3CB00C01A524183088B42DA
:104AE00001D38B00C01A524143088B4201D34B00C3
:104AF000C01A5241411A00D2014652411046704735
:104B00005DE0CA0F00D04942031000D34042534039
:104B100000229C4603098B422DD3030A8B4212D3F9
:104B2000FC22890112BA030A8B420CD3890192112B
:104B30008B4208D3890192118B4204D389013AD068
:104B4000921100E08909C3098B4201D3CB01C01A3D
:104B5000524183098B4201D38B01C01A5241430950
:104B60008B4201D34B01C01A524103098B4201D33E
:104B70000B01C01A5241C3088B4201D3CB00C01AAB
:104B8000524183088B4201D38B00C01A5241D9D2C3
:104B900043088B4201D34B00C01A5241411A00D244
:104BA0000146634652415B10104601D34042002B40
:104BB00000D54942704763465B1000D3404201B5BF
:104BC000002000F005F802BD0029F8D016E7704774
:104BD0007047C0468446081C6146FFE71FB500F0D9
:104BE000D5F8002801D40021C8421FBD10B500F03F
:104BF00061F84042013010BD10B500F0C7F8002840
:104C000001DB002010BD012010BDC04610B500F032
:104C1000BDF8002801DD002010BD012010BDC046F8
:104C200010B500F06FF8002801DC002010BD012055
:104C300010BDC04610B500F065F8002801DA00206C
:104C400010BD012010BDC0461C2101231B04984249
:104C500001D3000C10391B0A984201D3000A08390D
:104C60001B09984201D30009043902A2105C4018C4
:104C70007047C04604030202010101010000000068
:104C8000000000009E2110B5C905041CFFF7D2FFEB
:104C9000002803D1201C00F057FB10BD9E21201CD2
:104CA000C90500F0CBF900F04FFB80231B069C46A2
:104CB0006044F2E7430270B542004C005D0AC30F46
:104CC0004802120E460A240EC90FFF2A0FD0FF2CED
:104CD00011D00120A24200D070BDB542FCD18B4260
:104CE0000DD0002AF8D12800431E9841F4E7012096
:104CF000002DF1D1EBE70120002EEDD1E9E70020F6
:104D0000EAE7C0464302F0B542005D0AC30F48021D
:104D1000440A4800120E000EC90FFF2A1FD0FF28B8
:104D200022D0002A09D16E426E4100280FD1002CFA
:104D30000DD10020002D09D005E0002801D1002C64
:104D400001D08B4213D0584201231843F0BD002EEE
:104D5000F7D048424141012049420843F6E7002D7F
:104D6000DDD002204042F1E7002CDAD0F9E78242A0
:104D7000E9DC04DBA542E6D80020A542E6D2584291
:104D8000434101205B421843E0E7C0464302F0B5CF
:104D900042004C005E0AC30F4802120E450A240E60
:104DA000C90FFF2A17D0FF2C19D0002A0BD170424F
:104DB0007041002C17D0002807D048424141012003
:104DC00049420843F0BD002C13D08B4214D0584206
:104DD00001231843F6E70220002EF3D1E3E7022077
:104DE000002DEFD1E1E7002DE5D10020002EE9D024
:104DF000EDE7002DE9D1EAE7A242E8DC04DBAE42B0
:104E0000E5D80020AE42DDD25842434101205B424A
:104E10001843D7E7F0B557464E4645464300E0B441
:104E200046028846760A1F0EC40F002F47D0FF2F78
:104E300025D0002380259A469946F600ED042E439E
:104E40007F3F434642465D02D20F5B006D0A1B0E58
:104E5000904640D0FF2B39D080220020ED00D204B4
:104E600015437F3BFB1842465746591C62408C460F
:104E700007430F2F5CD86F49BF00C9598F46002EDA
:104E800045D108239A46063B9946DAE7424602286E
:104E90002DD0032800D1C3E0012800D0A2E00025D6
:104EA00000260240D4B27602ED05760A2E43E407CE
:104EB000264330001CBC90469946A246F0BD002E09
:104EC0001AD104239A46033B9946BAE72A00511E99
:104ED0008A41901CC6E70120002DC3D02800FFF7AF
:104EE000B3FE431F76309D4043420020BAE70124C1
:104EF000FF2514400026D6E73000FFF7A5FE431F2C
:104F00009E400023763047429A46994699E70C2303
:104F10009A46093B994694E780260024F603FF252C
:104F2000C1E735004846B2E7350022004846AEE703
:104F30002904090C0800370C3604360C2C0C794374
:104F4000704367437443060C64183619B14203D9A1
:104F500080214902884647440004000C31040918A6
:104F60008D01681E8541890E2943350CED19AD016F
:104F70000D43290104D5012369081D4063460D43F3
:104F800019007F31002925DD680704D00F20284053
:104F9000042800D00435280103D5274980330D406B
:104FA0001900FE29A3DC0124AD016E0A1440CDB224
:104FB00079E78020C003064207D0054205D1284387
:104FC0004602760A4446FF256DE706437602760AD6
:104FD000FF2568E70124611A1B2905DD144000251F
:104FE000002660E76346CBE72E002023CE40591A07
:104FF0008D406B1E9D412E43730704D00F23334019
:10500000042B00D00436730104D50124012514407B
:10501000002648E70124B601760A1440002542E73D
:1050200080260124F6032E437602760A1440FF25DB
:1050300039E7C046F4680000FFFFFFF7F8B54A0201
:105040004E0043024400240EC50F9B09360EC90FC3
:105050009209FF2E00D183E001204140A01BA9420C
:105060005CD0002800DC95E0002E1CD1002A00D086
:1050700081E05A0704D00F221A40042A00D00433DA
:105080005A013BD50134FF2C00D191E001209B0156
:105090005B0AE4B205405B02E4055B0AED072343CB
:1050A0002B431800F8BDFF2CE3D08021C9040A432C
:1050B0001B2800DD90E016002021C640081A82401F
:1050C000511E8A4132439B1A5A0115D59B019E09F4
:1050D0003000FFF7B9FD0538864084426CDC041BC4
:1050E000330020200134E340041BA640721E964189
:1050F00000243343BDE70D005A07BCD1DF0801236C
:105100001D40FF2C33D1002F00D190E08022D2032C
:1051100013003B435B025B0AFF24BCE700284FDD22
:10512000002E2ED0FF2CA4D08025ED042A431B286E
:1051300000DD97E016002025C640281A8240501E48
:10514000824132439B185A01D5D50134FF2C6DD0D2
:1051500001227B481A405B08034013430D0088E797
:10516000002A00D07AE777E7031EC5D100257B022D
:105170005B0AE4B28FE701380028A4D0FF2C97D156
:1051800077E7002A00D174E701380028DAD0FF2C35
:10519000CDD16EE7002821D1601CC0B2012858DDB6
:1051A00080279E1AFF0437402FD0D61A0D008FE7B4
:1051B00001231D4000236EE7624B241A334058E759
:1051C000002851D1601CC6B2012E33DDFF282DD03E
:1051D0009B185B0804004CE7012274E7002C1AD0EE
:1051E000FF2E1FD08024E404404223431B2800DD0F
:1051F00096E01D002024C540201A8340581E83419C
:105200002B43D31A34000D005EE7002E00D05FE779
:1052100000250024ABE7002B44D0C0430028F0D089
:10522000FF2EE3D11300FF240D0022E70D00FF2421
:10523000002330E7002C5DD1002B7DD0002A00D167
:1052400017E79B185A0100D456E73E4A0400134062
:105250000FE7002C1ED1002B2FD1002A65D01300A0
:105260000D0006E701226DE7002C1FD1002B59D05D
:10527000C04300280BD0FF2E4FD01B285EDC1D0042
:105280002024C540201A8340581E83412B439B187D
:10529000340058E7002B1CD1002A49D013000D0020
:1052A000FF24E6E6130034000D00E2E6FF2E34D0C2
:1052B0008024E40440422343DFE7002A00D1D8E6FB
:1052C0008027981AFF04074000D14DE7D31A0D003C
:1052D000CFE6FF24002A00D1CBE68020DB08C00304
:1052E000034204D0D208024201D113000D00DB00BA
:1052F000FF24BEE6002B10D0FF24002A00D1B8E620
:105300008020DB08C003034203D0D208024200D150
:105310001300DB000D00FF24ABE61300FF24A8E61A
:1053200001236EE713003400A3E6002700251EE7E3
:1053300080270025FF03E9E613009AE60123A6E78C
:10534000FFFFFF7DFFFFFFFB4302590A4300C20F2F
:105350001B0E00207E2B0EDD9D2B0DDC802000041B
:105360000143952B0BDC9620C31AD9400B00584201
:10537000002A00D118007047034BD018FBE7963B7A
:1053800099400B00F3E7C046FFFFFF7F70B5041E96
:1053900028D0FFF759FC9E231B1A962B0ADC962275
:1053A000D21A94406202520AD8B25202520AC0057E
:1053B000104370BD992B18DC9922D21A9440114ADF
:1053C0002240610704D00F210C40042C00D004328D
:1053D000510103D50B4B1A409F231B1A9201520A0D
:1053E000D8B2E2E700200022DFE705222500121AEA
:1053F000B921D5402200C91A8A40541EA2412C006E
:105400001443DCE7FFFFFFFB0B0010B501001800A1
:1054100000F002F810BDFFFF70B5054C0500130049
:10542000201E04D00A000220290000E000BF70BD49
:1054300000000000014B18687047C04634FFFF1F92
:105440000E4B70B500251E000D4CE41AA410A542A9
:1054500004D0AB00F35898470135F8E701F09AFA09
:10546000084B00251E00084CE41AA410A54204D0E5
:10547000AB00F35898470135F8E770BDA06900000C
:10548000A0690000A0690000AC69000010B5034BE2
:105490000100186800F06CF810BDC04634FFFF1F13
:1054A00010B5034B0100186800F016F810BDC04697
:1054B00034FFFF1F002310B59A4203D0CC5CC454C4
:1054C0000133F9E710BD03008218934202D019702E
:1054D0000133FAE77047FFFF70B50500002944D09B
:1054E0000C1F2368002B00DAE418280000F0CBF82A
:1054F0001E4A13681100002B02D16360146031E072
:10550000A3420DD92268A018834203D118685B68B2
:105510008218226063600C6024E0A24203D813006A
:105520005A68002AF9D11E689819A0420BD1216847
:10553000711858181960824214D1106852684118C5
:1055400019605A600EE0A04202D90C232B6009E0DA
:1055500021686018824203D11068526841182160A6
:1055600062605C60280000F08FF870BD3804002095
:10557000032370B5CD1C9D43083506000C2D01D2C8
:105580000C2501E0002D01DBA94202D90C23336078
:1055900048E0300000F077F8234B1C681A00210027
:1055A000002913D00B685B1B0DD40B2B02D90B60A9
:1055B000CC181EE08C4202D1636813601AE04B687D
:1055C00063600C0016E00C004968E9E7174C23689B
:1055D000002B03D1300000F035F8206029003000A6
:1055E00000F030F8431C18D00323C41C9C43A04295
:1055F0000DD12560300000F047F8200007220B3065
:10560000231D9043C31A0ED05A42E2500BE0211AD8
:10561000300000F017F8431CEBD10C23300033604E
:1056200000F032F8002070BD38040020340400205F
:1056300010B5034B0A000100186800F026F810BDF1
:1056400034FFFF1F002370B5064C050008002360DF
:10565000FEF72EF8431C03D12368002B00D02B60EB
:1056600070BDC04650040020031C0A7801311A7036
:105670000133002AF9D170470023C25C0133002AAC
:10568000FBD1581E704770477047F8B506000C00F4
:105690001500002904D11100FFF76AFF040018E08B
:1056A000002A03D1FFF718FF2C0012E000F013F8D6
:1056B00085420ED929003000FFF75AFF071E07D098
:1056C00021002A00FFF7F6FE21003000FFF704FF5B
:1056D0003C002000F8BD0B1F1A68101F002A04DAD6
:1056E000891804390B68D0180438704753657269FB
:1056F000616C20446562756720506F72742053742A
:105700006172746564206174200049676E6F72690C
:105710006E6720756E6B6E6F776E20636F6D6D6157
:105720006E643A2000496E76616C696420546F7033
:105730004C6576656C537461746500000000000070
:105740000000000000000000000000000000000059
:105750000000000000000000000000000000000049
:105760000000000000000000000000000000000039
:105770000000000001000100010001000001010122
:105780000100000000000101000000000000010114
:105790000000000000000101000000000000010105
:1057A00000000000000001010000000000010101F4
:1057B00001000000000000000000000000010100E6
:1057C00001010000010101010101010001010101CC
:1057D00001010100010101010101010000010101BC
:1057E00001010000000001010100000000000001B3
:1057F00000000000000000000000000000010101A6
:105800000100000001010000010100000101000091
:105810000000000001010000000000000101000084
:105820000000000001010000010100000001010171
:105830000100000000000000000000000001010164
:105840000100000001010000010100000101000051
:105850000101000001010000010100000101000040
:10586000010100000101000001010000000101012F
:105870000100000000000000000000000101010123
:105880000100000001010000010100000101000011
:1058900001010000010101010100000001010101FD
:1058A00000000000010100010100000001010000F2
:1058B00001010000000000000000000001010101E2
:1058C00001010000010100000000000001010000D2
:1058D00000000000010101010000000001010000C2
:1058E00000000000010100000000000001010101B2
:1058F00001010000000000000000000000000000A6
:105900000000000000000000000000000000000097
:105910000000000000000000000000000000000087
:105920000000000000000000000000000000000077
:105930000000000001000100010001000101000061
:10594000000101000101010001010100010101014B
:10595000010101000101000100010100010100003D
:10596000000101000101000000010100010100002F
:105970000001010000000000000000000101010121
:105980000101000001010000000000000101000011
:105990000000000001010101000000000101000001
:1059A00000000000010100000000000001010101F1
:1059B00001010000000000000000000001010000E3
:1059C00000010100010101000101010001010101CB
:1059D00001010100010100010001010001010000BD
:1059E00000010100010100000001010001010000AF
:1059F00000010100000000000000000000010101A2
:105A0000010000000101000001010000010100008F
:105A1000010100000101000001010000010100007E
:105A2000010100000101000001010000000101016D
:105A30000100000000000000000000000101010161
:105A4000010000000101000001010000010100004F
:105A5000010100000101010101000000010101013B
:105A60000000000001010001010000000101000030
:105A70000101000000000000000000000101000022
:105A8000010100000101000001010000010100000E
:105A900001010000000101010100000000000101FE
:105AA00000000000000001010000000000000101F2
:105AB00000000000000000000000000000000101E4
:105AC00000000000000001010000000000000101D2
:105AD00000000000000001010000000000000000C4
